:1000000019C033C032C031C030C02FC02EC02DC087
:100010002CC02BC02AC029C028C027C026C025C09C
:1000200024C023C022C0D6C420C01FC01EC01DC013
:100030001CC01BC011241FBECFEFCDBFDFE3DEBF4E
:100040001EE3A0E0BEE3E6E9FAE002C005900D92EF
:10005000A631B107D9F72FE3A6E1BEE301C01D9297
:10006000A73AB207E1F714D314C5CACF09D408954B
:10007000089510D4897F8093973F16D48091973F3D
:1000800080FF05C01092993F10929A3F08958FEF1C
:100090009FEF8093993F90939A3F08958091230812
:1000A00080932308E0E0FAE010A211A281E08083AF
:1000B00040E00BC0F901E95EF14C80818093240897
:1000C000809123088823E4F74F5F242F30E080914C
:1000D000163E90E0BC01660F771F860F971F28170A
:1000E000390744F31092000A08958091163E882340
:1000F00029F0F894D3DF1092163E789408958091F9
:10010000973F8695803329F48091983F8F3F09F47B
:10011000ECDF1092983F7894E0E5F0E08081816018
:100120008083889580818E7F80830895CF93DF932D
:10013000823008F089C030E050E082C0A82FB0E0E3
:10014000C32FD0E0FD01EE0FFF1FEE0FFF1FEE0FDC
:10015000FF1FEC5FF14CEC0FFD1F9081792F777042
:1001600092959F709F3069F5FD01E050F24CE0815F
:10017000F0E0032E02C0F595E7950A94E2F7E0FF60
:100180000AC0E1E0F0E0032E02C0EE0FFF1F0A9468
:10019000E2F75E2B54C0AE5FB14CEC91F0E0032E61
:1001A00002C0F595E7950A94E2F7E0FF48C0E1E068
:1001B000F0E0032E02C0EE0FFF1F0A94E2F75E2B61
:1001C0003EC0911113C0E62FF0E002C0F595E7950F
:1001D0007A95E2F7E0FF33C0E1E0F0E0032E02C0E1
:1001E000EE0FFF1F0A94E2F75E2B29C0913099F4BD
:1001F000E42FF0E002C0F595E7957A95E2F7E0FF8D
:100200001EC0E1E0F0E0032E02C0EE0FFF1F0A94D3
:10021000E2F75E2B14C0923091F4E22FF0E002C0BE
:10022000F595E7957A95E2F7E0FF09C0E1E0F0E0A7
:10023000032E02C0EE0FFF1F0A94E2F75E2B3F5F12
:10024000383008F47BCF01C050E0852FDF91CF918B
:1002500008959091973F96959033C9F42091983FD7
:100260002F3FB9F030E0A901440F551F240F351F6F
:100270004091993F50919A3F240F351F203881E0DB
:10028000380748F4F901E95EF14C808105C080E04F
:1002900003C080E801C080E0903209F04DC0909129
:1002A000983F9230F0F42091993F30919A3F290F76
:1002B000311D2115310549F420914804409128044D
:1002C0006091080480E032DF37C021303105A1F5AC
:1002D00020914804409128046091080481E026DFC1
:1002E0002BC02EEF290F223090F42091993F3091AE
:1002F0009A3F290F311D2230310519F48091023EB9
:100300001BC023303105C1F48091033E15C02AEF94
:10031000290F223088F42091993F30919A3F290F7C
:10032000311D2630310519F48091003E05C027307B
:10033000310511F48091013EB0D28091993F9091A6
:100340009A3F01968093993F90939A3F0895823007
:1003500008F082C020E07DC0422F50E0E82FF0E09E
:10036000EE0FFF1FEE0FFF1FEE0FFF1FEC5FF14CB4
:10037000E40FF51F9081392F377092959F7009F522
:10038000462F50E0022E02C0559547950A94E2F799
:1003900040FF0BC091B141E050E002C0440F551F37
:1003A0003A95E2F7492B41B953C091B141E050E091
:1003B00002C0440F551F3A95E2F74095492341B9D1
:1003C00047C0913011F5E62FF0E0DF01022E02C0A8
:1003D000B595A7950A94E2F7A0FF0BC095B141E04F
:1003E00050E002C0440F551F3A95E2F7492B45B93A
:1003F0002FC095B141E050E002C0440F551F3A951F
:10040000E2F74095492345B923C0923009F5E62F1C
:10041000F0E0DF01022E02C0B595A7950A94E2F73D
:10042000A0FF0BC099B141E050E002C0440F551F3E
:100430003A95E2F7492B49B90BC099B141E050E038
:1004400002C0440F551F3A95E2F74095492349B938
:100450002F5F283008F480CF0895823008F0A8C0BC
:1004600020E0A3C0E82FF0E0EE0FFF1FEE0FFF1F0C
:10047000EE0FFF1FEC5FF14CE20FF11D9081E92FB1
:10048000E77092959F7079F5462F50E00E2E02C0CE
:10049000559547950A94E2F740FF13C090B141E0AB
:1004A00050E00E2E02C0440F551F0A94E2F740950B
:1004B000492340B9F0E0E05FFB4F90819860908362
:1004C00073C090B141E050E00E2E02C0440F551FA2
:1004D0000A94E2F7492B40B9F0E0E05FFB4F9081CE
:1004E000977F908361C0913079F5462F50E00E2EB2
:1004F00002C0559547950A94E2F740FF13C094B1A6
:1005000041E050E00E2E02C0440F551F0A94E2F75E
:100510004095492344B9F0E0E05DFB4F908198603D
:10052000908342C094B141E050E00E2E02C0440FCF
:10053000551F0A94E2F7492B44B9F0E0E05DFB4F08
:100540009081977F908330C0923071F5462F50E0B4
:100550000E2E02C0559547950A94E2F740FF13C04E
:1005600098B141E050E00E2E02C0440F551F0A948E
:10057000E2F74095492348B9F0E0E05BFB4F9081FA
:100580009860908311C098B141E050E00E2E02C0F7
:10059000440F551F0A94E2F7492B48B9F0E0E05B9D
:1005A000FB4F9081977F90832F5F283008F45ACFBC
:1005B0000895CF936FD1C82F77D12091993F309173
:1005C0009A3F2F3F8FEF380749F4C093983F2F5F32
:1005D0003F4F2093993F30939A3F58C08091973F67
:1005E00086958033B9F44091983F4F3F19F4C093FA
:1005F000163E10C050E0BA01660F771F460F571F16
:10060000420F531F403891E0590720F4FA01E95E88
:10061000F14CC083803289F58091983F9EEF980F0E
:100620009230A0F4280F311D2230310531F4C093EF
:10063000023E6C2F80E08BDE20C023303105E9F4D0
:10064000C093033E6C2F81E082DE17C09AEF980FB3
:10065000923098F4280F311D2630310531F4C093C3
:10066000003E6C2F80E0F9DE08C02730310529F408
:10067000C093013E6C2F81E0F0DE8091993F909114
:100680009A3F01968093993F90939A3FCF91089516
:10069000EDDC89E291E01CD189ED92E026D189E37D
:1006A00090E030D18FE790E03AD188E390E044D1F8
:1006B00088E390E0B2D1E0E5F0E08081897F84605A
:1006C00080837894808181608083889580818E7F0B
:1006D0008083C2E0DEE3688180E039DE698181E009
:1006E00036DEC0E0DEE3688180E0B7DE698181E06C
:1006F000B4DEFFCF80E00895E0ECF1E088EA848783
:1007000088E083878BEB828789E0818781E480831F
:1007100080E0089541E068ED81E690E09ED180E0C0
:100720000895789480E0089580E008C0E82FF0E014
:10073000E05FFB4F9081986090838F5F8830B0F3CB
:1007400080E008C0E82FF0E0E05DFB4F908198600A
:1007500090838F5F8830B0F380E008C0E82FF0E02E
:10076000E05BFB4F9081986090838F5F8830B0F39F
:10077000089581D1089589B18D7F89B988B182604A
:1007800088B9E0E0F2E0808180628083B5DF08957F
:1007900088B18D7F88B9E1E5F4E08081877F80832F
:1007A000E0E0F2E081818460818389B18B7F89B947
:1007B00088B1846088B981818460818389B18E7FAA
:1007C00089B988B1816088B981818460818389B168
:1007D000877F89B988B1886088B981818460818385
:1007E00042D1089585B18E7F85B984B1816084B985
:1007F000E0E3F4E08081877F808380818F7780834E
:100800008081887F808385B18D7F85B984B1826046
:1008100084B9E1E3F4E08081877F808380818F77F2
:1008200080838081887F808384B18B7F84B9A2E3B9
:10083000B4E08C9188608C9388B18B7F88B9E2E5B5
:10084000F4E080818860808386B18695869591E00A
:10085000892781702AB12695269592279170880F55
:10086000890F9C9198609C939C91977F9C93908119
:10087000986090839081977F9083805ED3D0089515
:1008800053DF48DF76DF77DF83DF4BDFEAD0AADF95
:1008900031DF089580911D080895E0E1F8E0858733
:1008A000828583608287089583E080931A08089583
:1008B000E0E1F8E08385806C838782E08287089599
:1008C000E0919F3FF091A03F309709F0099508957E
:1008D00080939F3F9093A03F0895E0919D3FF091BA
:1008E0009E3F309709F00995089580939D3F90931E
:1008F0009E3F0895E091A13FF091A23F309709F00B
:10090000099508958093A13F9093A23F0895E091A7
:100910009B3FF0919C3F309709F009950895809393
:100920009B3F90939C3F0895E091A53FF091A63F97
:10093000309709F0099508958093A53F9093A63FBD
:100940000895E091A33FF091A43F309709F00995F5
:10095000089580911B0883FF02C0E6DF089580910F
:100960001B0882FF02C0EDDF089580911B0886FFFF
:1009700009C080911B0880FF05C0BCDF81E0809327
:10098000143E089580911B088823BCF480911B08B5
:1009900081FF11C080911B0884FF04C08091143E28
:1009A000882339F01092143E8BDF83E080931A087D
:1009B00008957EDF089591DF089580911B0886FFDA
:1009C00008C080911B0880FD04C0A1DF82E08093F5
:1009D0001A0808951F920F920FB60F9211242F93A9
:1009E0003F934F935F936F937F938F939F93AF93B7
:1009F000BF93EF93FF93ADDFFF91EF91BF91AF9165
:100A00009F918F917F916F915F914F913F912F9126
:100A10000F900FBE0F901F9018958093A33F909357
:100A2000A43F0895880FE0E1F8E0848780E286879C
:100A300081EE818780E090E058DF80E090E048DF41
:100A400080E090E05FDF80E090E069DF80E090E0B0
:100A500073DF80E090E0E1DF0895FC0164BF408334
:100A6000089580E00895E0E2F8E083E2808384E086
:100A7000818380E00895E0E0FAE084E090E084A7DC
:100A800095A783E4818387E090E086A397A380E025
:060A90000895F894FFCF69
:100A9600FFFFFFFFFF01020304050607FF232413E0
:060AA600141516170100F3
:00000001FF
